{
  "contractName": "TodoList",
  "abi": [
    {
      "inputs": [],
      "payable": false,
      "stateMutability": "nonpayable",
      "type": "constructor"
    },
    {
      "anonymous": false,
      "inputs": [
        {
          "indexed": false,
          "internalType": "uint256",
          "name": "id",
          "type": "uint256"
        },
        {
          "indexed": false,
          "internalType": "bool",
          "name": "completed",
          "type": "bool"
        }
      ],
      "name": "TaskCompleted",
      "type": "event"
    },
    {
      "anonymous": false,
      "inputs": [
        {
          "indexed": false,
          "internalType": "uint256",
          "name": "id",
          "type": "uint256"
        },
        {
          "indexed": false,
          "internalType": "string",
          "name": "content",
          "type": "string"
        },
        {
          "indexed": false,
          "internalType": "bool",
          "name": "completed",
          "type": "bool"
        }
      ],
      "name": "TaskCreated",
      "type": "event"
    },
    {
      "constant": true,
      "inputs": [],
      "name": "taskCount",
      "outputs": [
        {
          "internalType": "uint256",
          "name": "",
          "type": "uint256"
        }
      ],
      "payable": false,
      "stateMutability": "view",
      "type": "function"
    },
    {
      "constant": true,
      "inputs": [
        {
          "internalType": "uint256",
          "name": "",
          "type": "uint256"
        }
      ],
      "name": "tasks",
      "outputs": [
        {
          "internalType": "uint256",
          "name": "id",
          "type": "uint256"
        },
        {
          "internalType": "string",
          "name": "content",
          "type": "string"
        },
        {
          "internalType": "bool",
          "name": "completed",
          "type": "bool"
        }
      ],
      "payable": false,
      "stateMutability": "view",
      "type": "function"
    },
    {
      "constant": true,
      "inputs": [],
      "name": "testName",
      "outputs": [
        {
          "internalType": "uint256",
          "name": "",
          "type": "uint256"
        }
      ],
      "payable": false,
      "stateMutability": "view",
      "type": "function"
    },
    {
      "constant": false,
      "inputs": [
        {
          "internalType": "string",
          "name": "_content",
          "type": "string"
        }
      ],
      "name": "createTask",
      "outputs": [],
      "payable": false,
      "stateMutability": "nonpayable",
      "type": "function"
    },
    {
      "constant": false,
      "inputs": [
        {
          "internalType": "uint256",
          "name": "_id",
          "type": "uint256"
        }
      ],
      "name": "toggleCompleted",
      "outputs": [],
      "payable": false,
      "stateMutability": "nonpayable",
      "type": "function"
    }
  ],
  "bytecode": "0x608060405260008055611af360015534801561001a57600080fd5b5060408051808201909152601581527f436865636b6f7574206d7920546f646f204c69737400000000000000000000006020820152610061906001600160e01b0361006616565b610226565b6000805460019081018083556040805160608101825282815260208082018781528284018790529386526002815291909420845181559151805192936100b49390850192919091019061018b565b5060408201518160020160006101000a81548160ff0219169083151502179055509050507f05d0fb833127fc08168556d0e7ca9554fc3f6bc843b3b7d2bf1c35aea6bab660600054826000604051808481526020018060200183151515158152602001828103825284818151815260200191508051906020019080838360005b8381101561014c578181015183820152602001610134565b50505050905090810190601f1680156101795780820380516001836020036101000a031916815260200191505b5094505050505060405180910390a150565b828054600181600116156101000203166002900490600052602060002090601f016020900481019282601f106101cc57805160ff19168380011785556101f9565b828001600101855582156101f9579182015b828111156101f95782518255916020019190600101906101de565b50610205929150610209565b5090565b61022391905b80821115610205576000815560010161020f565b90565b610634806102356000396000f3fe608060405234801561001057600080fd5b50600436106100575760003560e01c8063111002aa1461005c578063455f5024146101045780638d97767214610121578063b6cb58a5146101c8578063cc8668de146101e2575b600080fd5b6101026004803603602081101561007257600080fd5b81019060208101813564010000000081111561008d57600080fd5b82018360208201111561009f57600080fd5b803590602001918460018302840111640100000000831117156100c157600080fd5b91908080601f0160208091040260200160405190810160405280939291908181526020018383808284376000920191909152509295506101ea945050505050565b005b6101026004803603602081101561011a57600080fd5b503561030f565b61013e6004803603602081101561013757600080fd5b5035610487565b604051808481526020018060200183151515158152602001828103825284818151815260200191508051906020019080838360005b8381101561018b578181015183820152602001610173565b50505050905090810190601f1680156101b85780820380516001836020036101000a031916815260200191505b5094505050505060405180910390f35b6101d0610535565b60408051918252519081900360200190f35b6101d061053b565b60008054600190810180835560408051606081018252828152602080820187815282840187905293865260028152919094208451815591518051929361023893908501929190910190610541565b5060408201518160020160006101000a81548160ff0219169083151502179055509050507f05d0fb833127fc08168556d0e7ca9554fc3f6bc843b3b7d2bf1c35aea6bab660600054826000604051808481526020018060200183151515158152602001828103825284818151815260200191508051906020019080838360005b838110156102d05781810151838201526020016102b8565b50505050905090810190601f1680156102fd5780820380516001836020036101000a031916815260200191505b5094505050505060405180910390a150565b6103176105bf565b6002600083815260200190815260200160002060405180606001604052908160008201548152602001600182018054600181600116156101000203166002900480601f0160208091040260200160405190810160405280929190818152602001828054600181600116156101000203166002900480156103d85780601f106103ad576101008083540402835291602001916103d8565b820191906000526020600020905b8154815290600101906020018083116103bb57829003601f168201915b505050918352505060029182015460ff161515602091820152604080840180511590526000868152928252909120825181558282015180519394508493919261042992600185019290910190610541565b50604091820151600291909101805460ff1916911515919091179055818101518151848152901515602082015281517fe21fa966ca5cd02748c0752352d18c48165e61cb55b4c29cccf924b5a95fcff1929181900390910190a15050565b60026020818152600092835260409283902080546001808301805487519281161561010002600019011695909504601f81018590048502820185019096528581529094919390929091908301828280156105225780601f106104f757610100808354040283529160200191610522565b820191906000526020600020905b81548152906001019060200180831161050557829003601f168201915b5050506002909301549192505060ff1683565b60005481565b60015481565b828054600181600116156101000203166002900490600052602060002090601f016020900481019282601f1061058257805160ff19168380011785556105af565b828001600101855582156105af579182015b828111156105af578251825591602001919060010190610594565b506105bb9291506105e2565b5090565b604051806060016040528060008152602001606081526020016000151581525090565b6105fc91905b808211156105bb57600081556001016105e8565b9056fea265627a7a7231582026e26356c0405cf1074bfb588db335fbb7687c10aa046f8dd8cbf80a5aa5604e64736f6c63430005100032",
  "source": "pragma solidity >=0.4.21 <0.6.0;\r\n\r\ncontract TodoList {\r\n\tuint public taskCount = 0;\r\n\tuint public testName = 6899;\r\n\r\n\tstruct Task {\r\n\t\tuint id;\r\n\t\tstring content;\r\n\t\tbool completed;\r\n\t}\r\n\r\n\tmapping(uint => Task) public tasks;\r\n\r\n\tevent TaskCreated(\r\n\t\tuint id,\r\n\t\tstring content,\r\n\t\tbool completed\r\n\t);\r\n\r\n\tevent TaskCompleted(\r\n\t\tuint id,\r\n\t\tbool completed\r\n\t);\r\n\r\n\tconstructor() public {\r\n\t\tcreateTask(\"Checkout my Todo List\");\r\n\t}\r\n\r\n\tfunction createTask(string memory _content) public {\r\n\t\ttaskCount++;\r\n\t\ttasks[taskCount] = Task(taskCount, _content, false);\r\n\t\temit TaskCreated(taskCount, _content, false);\r\n\t}\r\n\r\n\tfunction toggleCompleted(uint _id) public {\r\n\t\tTask memory _task = tasks[_id];\r\n\t\t_task.completed = !_task.completed;\r\n\t\ttasks[_id] = _task;\r\n\t\temit TaskCompleted(_id, _task.completed);\r\n\t}\r\n\r\n}",
  "sourcePath": "D:\\a13\\block-todo\\contracts\\todolist.sol",
  "compiler": {
    "name": "solc",
    "version": "0.5.16+commit.9c3226ce.Emscripten.clang"
  },
  "schemaVersion": "3.4.16",
  "updatedAt": "2024-10-18T18:40:22.338Z",
  "networkType": "ethereum",
  "devdoc": {
    "methods": {}
  },
  "userdoc": {
    "methods": {}
  }
}